:020000040000FA
:04000000803115280E
:100008007E14803182316C2280312000911C0D28B1
:100018000E28132891108031DB20803113287E10A0
:100028000900803117282030840000308500103006
:100038008331532380317E1020008331052BFA0051
:100048007A08F600F7017608F0007708F1000C301E
:10005800F2000030F3008231C3228031710885003C
:1000680070088400533084078130853D013F8A0041
:10007800003F0A0080317A08F600F7017608F000A0
:100088007708F1000C30F2000030F3008231C3220F
:1000980080317008023EF8000030713DF90053309D
:1000A800780784008130793D8500013F8A00003F50
:1000B8000A0080317A08F600F7017608F000770820
:1000C800F1000C30F2000030F3008231C32280319D
:1000D8007008043EF8000030713DF900533078078D
:1000E80084008130793D8500013F8A00003F0A0085
:1000F80080317A08F600F7017608F0007708F100F9
:100108000C30F2000030F3008231C32280317008D5
:10011800063EF8000030713DF9005330780784003E
:100128008130793D8500013F8A00003F0A00803117
:100138007A08F600F7017608F0007708F1000C302D
:10014800F2000030F3008231C32280317008083E8B
:10015800F8000030713DF900533078078400813091
:10016800793D8500013F8A00003F0A0080317A0806
:10017800F600F7017608F0007708F1000C30F2007D
:100188000030F3008231C322803170080A3EF80043
:100198000030713DF9005330780784008130793D93
:1001A8008500013F8A00003F0A00803108002000D6
:1001B8002F08031DE028E128F4282C03031DE52857
:1001C800E6285229AF01AF0A01308031232080315F
:1001D80020002F088131F3218031522952295229D8
:1001E80001302000AA070030AB3D8331592380310C
:1001F800003A031900290129042920002E14042992
:1002080020002E08B33E840081300318013E85008B
:100218000008B0003008AE002E1C13291429172935
:10022800AD01AD0A17292D0803191B291C294329DB
:100238000130B0000030B1000030B2000030B3002F
:100248003008A0023108A13B3208A23B3308A33B87
:10025800200A031D3929210A031D3929220A031DF1
:100268003929230A031D39293A2943291030220044
:100278008E068231E52280315229522943290730DE
:1002880020002B02D13003192A02031C4C294D29C6
:1002980052298231E52280315229522908008634B8
:1002A8000334803403347A340334743403346E34BE
:1002B800033468340334803403347A3403346E34BA
:1002C800033468340334833403347134033480349E
:1002D80003347A340334743403346E34033483348B
:1002E8000334893403348634033480340334743457
:1002F80003346E3403347734033489340334863456
:100308000334743403346E34033468340334773478
:1003180003347D340334863403347A340334743438
:100328000334683403346B3403347D340334863443
:100338000334803403347A340334683403346B343C
:1003480003347134033486340334803403347A3408
:100358000334743403346E3403346834033400349F
:1003680002340434063408340A340C340E3410349D
:1003780012341434163418341A341C341E3420340D
:1003880022342434263428342A342C342E340134AC
:1003980001340134363401343A343C343E340034C8
:1003A80002340434063408340A340C340E3401346C
:1003B80001340134163401341A341C341E34013427
:1003C80001340134263401342A342C342E340134D7
:1003D80001340134363401343A343C340134F20007
:1003E800152A2200111292141210312A2200111615
:1003F80092101214312A2200111292101210312A6E
:100408002200111692141210312A22001112921091
:100418001214312A2200111692101210312A312A90
:10042800312A7208F000F1017108003A03191D2AF7
:10043800312A7008013A0319F529033A0319FA29F0
:10044800013A0319FF29073A0319042A013A031943
:10045800092A033A03190E2A312A080020002A081B
:10046800A4072B08A53D0030A63DA73D2408F000B1
:100478002508F1002608F2002708F3000630F336B5
:10048800F20CF10CF00C890B432A7108A9007008D2
:10049800A8002808F0002908F100F201F30170080B
:1004A800A4027108A53B7208A63B7308A73B29085C
:1004B800F1002808F000F136F00CF136F00CF136B6
:1004C800F00C7008A0007108A100A201A3010800A7
:1004D80021009D146F2A9D18722A732A6F2A200002
:1004E800B201B20A21001C08FB00FC017B08FC00D9
:1004F800FB017B087C04031D822A832A8B2A1B08A4
:10050800031D872A882A8B2A2000B2018B2A200003
:100518003208FB00FC017B08B0007C08B100033006
:100528003102013003193002031C9B2A9C2AA02A9D
:1005380083314C238231A02A080021000E150D15A5
:100548008D140C30250093002030910001309E005E
:10055800960128009701FF3096009501200093101E
:100568002100931028001715B92A2000931CBD2AD2
:10057800BE2AB92A21000E110D118D100800F401B0
:10058800F501C62A701CC92ACA2ACE2A7208F4079D
:100598007308F53D0130F235F30D890BCF2A013090
:1005A800F136F00C890BD42A70087104031DDD2A7A
:1005B800DE2AC62ADF2A7508F1007408F000E42A4A
:1005C80008008231322282312000AD01AA01AB013C
:1005D800AE0106302F06031DF22AF32AF62AAF01D0
:1005E800AF0AFB2A0130FB007B08AF07FB2A2F0864
:1005F80080312320823120002F088131F32182317C
:1006080008008331452383318B170B1783311F2350
:1006180083318231A122833183315F238331833156
:100628003C23833183313023833183316423833105
:100638001C2B8031152823000C148C148C158D1557
:100648008C1622008C018D018E01FF3021008C0058
:1006580008308D008E010800103020009C002030EA
:100668009B009A0191102100911420001C1508008C
:10067800C33022009700D33021009E0011309D0026
:1006880008007A302100990098012200960108009C
:1006980000308031232083312000AF01080064003E
:1006A80080010131890B542B003400302200111BCA
:1006B80001305E2B0800843022009100920108006E
:1006C8002000AC01AC0A0800250016110800220021
:1006D8000E14080022000E100800250096140800C9
:1006E80025009610080022008E14080022008E10A3
:1006F800080025001614080025001610080022001E
:100708008E16080022008E12080025001615080013
:020000040001F9
:04000E00A4FFFFFF4D
:00000001FF
