:020000040000FA
:020000003228A4
:100008007E1480312000111F0A280B280C28111398
:100018000B1D0F28102830287108803AF800730843
:10002800803A7802031D1A287208700203181D28E6
:100038001E2828280130F0070030F13D0B118B16DF
:100048007408200095003028F001F1010130F60015
:100058000030F700302830287E1009003328F001DE
:10006800F101F201F301F401F501F601F7017E1047
:1000780020003E2881312F2180318B1721001D144B
:100088009E171E088F3960389E001D08833908386E
:100098009D001E109E108C018E010C158E152200DD
:1000A8008C018E0123000C158E115A2881312121D3
:1000B80080317A08FC007908FB0000307C028A3025
:1000C80003197B02031869286A28FA2820008E1D64
:1000D8006E286F28C02822000C148C14FA30F900FE
:1000E8000030FA0081310521803122008E140E146F
:1000F800FA30F9000030FA00813105218031220000
:100108000E150E16FA30F9000030FA00813105217B
:10011800803122000C168C16FA30F9000030FA00F3
:1001280081310521803122008C120C12FA30F9003D
:100138000030FA0081310521803122000E110E12A3
:10014800FA30F9000030FA008131052180312200AF
:100158008E100E10FA30F9000030FA0081310521B6
:10016800803122000C108C10D030F9000730FA00D2
:100178008131052180315A2822000C148C14FA3060
:10018800F9000030FA0081310521803122000C107D
:100198008C108E140E14FA30F9000030FA008131F8
:1001A8000521803122008E100E100E150E16FA3021
:1001B800F9000030FA0081310521803122000E114A
:1001C8000E120C168C16FA30F9000030FA00813144
:1001D8000521803122008C120C12D030F900073032
:1001E800FA008131052180315A285A28D030F90087
:1001F8000730FA008131052180315A285A285A28B7
:100208003228F601F7012100951295150B118B166E
:10021800AA30F4000030F5007A08F3007908F200FB
:1002280074082000950019291929760877040319FC
:100238001E291F2919292029080021009D14242975
:100248009D1827292829242929291C08FA001B0870
:08025800F9002E29080008003E
:020000040001F9
:04000E00E4F9FFFF13
:00000001FF
