:020000040000FA
:020000001D28B9
:100008007E1480310B1F09280A281B282100911C07
:100018000E280F281B282000911C132814281B28A1
:100028008731522780311B281B281B281B287E104C
:1000380009001E28AA3084008530850020308600FB
:100048000030870026308731AA278031F801F9016E
:10005800FA01FB01FC01FD01E301E401E501E60110
:10006800E7017E102000182E21001C08F7001B084D
:10007800F6002000671C412842284428E128E1288E
:100088007C08031948284928C5285528552885314A
:10009800F425803166288531D02580316628662888
:1000A80066287C080139F400F5017508003A03193F
:1000B8005E2866287408003A03194B28013A031988
:1000C8004F2866280930F4007408F0007D0886314E
:1000D800A2268031053E3D3E8600870101087C0648
:1000E800031977287828C2287C1C7B287C28A32819
:1000F8007609F4007709F500F40A0319F50A74087B
:10010800003EF6000430753DF7007609F4007709E3
:10011800F500F40A0319F50A7A087407F0007B0859
:10012800753DF10086316D26803170082000E307A7
:100138007108E43D7708FB007608FA00BD287609C7
:10014800F4007709F500F40A0319F50A780874072A
:10015800F0007908753DF10086316D268031700810
:100168002000E3077108E43D7708F9007608F800F5
:10017800BD287608E5077708E63DC2280130FC026D
:10018800E12876082000E5077708E63D7609F400BF
:100198007709F500F40A0319F50A78087407F000DE
:1001A8007908753DF10086316D2680317008200090
:1001B800E3077108E43D6714E12808002000D00037
:1001C8005008053E86008701403FC600413FC700F2
:1001D800423FC800433FC9000430C936C80CC70CA9
:1001E800C60C890BF128C609C709C809C909C60A76
:1001F8000319C70A0319C80A0319C90A5008033E94
:1002080086008701403FCA00413FCB004A08CC0026
:100218004B08CD00CE01CF014C08C6074D08C73D9D
:100228004E08C83D4F08C93D4908D4004808D300C6
:100238004708D2004608D1005108C6005208C70036
:100248005308C8005408C90050080F3E86008701AB
:10025800010A3229C937C80CC70CC60C890B2E29CC
:100268004908D4004808D3004708D2004608D100FE
:10027800D41B4C295408031D4D295308031D4D292F
:100288005208031D4D2980305102031C4C294D2969
:1002980056290030D4000030D3000030D2007F301F
:1002A800D1005629D41F632980305102FF30523BB8
:1002B800FF30533BFF30543B0318632964296D29F1
:1002C800FF30D400FF30D300FF30D2008030D1009F
:1002D8006D295108C6005008093E86008701460866
:1002E8008100080020005308093E860087010108A4
:1002F800803A8A3E031881298229A52953080A3E93
:10030800860087010130810741310318810A5308AB
:100318000A3E86008701403FD400413FD5000030A7
:100328005502213003195402031C9B299C29DC29FE
:1003380053080A3E860087010030C03FC13FDC29D0
:10034800DC2953080E3E860087010108803AD40054
:100358005308093E860087010108803AD402031831
:10036800B629B729D3290230D4005308023E8600A3
:1003780087015408810053080A3E8600870100302F
:10038800C03FC13F5308860087010108D4005408C4
:10039800C60029088A0028080A008131DC292000C3
:1003A80053080A3E860087010030C03FC13FDC2960
:1003B800200053080C3E8600870101308107413137
:1003C8000318810A53080C3E86008701403FD40079
:1003D800413FD50000305502213003195402031C57
:1003E800F629F729032A53080C3E860087010030B6
:1003F800C03FC13F5308823104228131032A0800DB
:100408002000CC008B1F092A0A2A4D2A8B134C087E
:10041800053E86008701403FC600413FC700423F76
:10042800C800433FC9000430C936C80CC70CC60C05
:10043800890B182A4C08053E860087014608810268
:1004480041314708813B41314808813B41314908E6
:10045800813B7D314C08033E86008701403FC60042
:10046800413FC7004608C8004708C900CA01CB0178
:100478004C08053E86008701480881074131490834
:10048800813D41314A08813D41314B08813D8B17FF
:100498008E2A4C08053E86008701403FC600413F32
:1004A800C700423FC800433FC9000430C936C80CE2
:1004B800C70CC60C890B5A2A4C08053E86008701D2
:1004C8004608810241314708813B41314808813B58
:1004D80041314908813B7D314C08033E8600870144
:1004E800403FC600413FC7004608C8004708C9004A
:1004F800CA01CB014C08053E8600870148088107E0
:1005080041314908813D41314A08813D41314B081B
:10051800813D8E2A08002000D4006408CF006308BB
:10052800CE00CF36CE0CCF36CE0C63084E07D000A7
:1005380064084F3DD1002C08CE004E08D50066084F
:10054800D3006508D200D70105305702031CAD2A35
:10055800AE2AB02A0D2B0D2B5708B63E84008730E3
:100568000318013E85000008CE004E08AC07C32AD8
:10057800FF30AC02C830CE004E08AC07CF2AC830D6
:100588002C020318C82AC92ACF2AC830CE004E0820
:10059800AC07CF2ACF2A0530CE004E08D600E02A75
:1005A80001302000D6025608031DDB2ADC2AE02A87
:1005B800FC30172B172BE02A540883318323823110
:1005C800003A031DE82AE92AD42AEA2A2000640806
:1005D8005102031DF12A630850020318F42AF52A70
:1005E800022B6408D1006308D0002C08CE004E0806
:1005F800D5006608D3006508D200022B0130CE0072
:100608004E08D70705305702031C0B2B0C2BB02ABA
:100618000D2B5508CE004E08AC005308E6005208D2
:10062800E5000030172B08002000D0008B1F1D2B81
:100638001E2B512B8B135008033E86008701403F29
:10064800CE00413FCF00CF36CE0CCF36CE0C50086F
:10065800033E860087014E08810241314F08813BE5
:100668007F31500A8600870101088631E9268331E7
:1006780020004A08CE004B08CF00CF36CE0CCF362C
:10068800CE0C5008033E860087014E088107413191
:100698004F08813D7F318B17822B5008033E86001F
:1006A8008701403FCE00413FCF00CF36CE0CCF363A
:1006B800CE0C5008033E860087014E088102413166
:1006C8004F08813B7F31500A860087010108863137
:1006D800E926833120004A08CE004B08CF00CF36E8
:1006E800CE0CCF36CE0C5008033E860087014E084C
:1006F800810741314F08813D7F31822B080020005E
:10070800CD00CC0121001D082000C8004808C90000
:1007180021001E082000C8004808CA0021001F0840
:100728002000C8004808CB00873179278331200092
:100738004D08860087010108C8004808FD004D08DB
:1007480086008701453FFC00E501E6016710E301EB
:10075800E4013830C6000030C7008731B027833144
:1007680020002C088731C52783318731D62783316C
:100778002000E710C62BC62B671CC32BC42BC62B27
:10078800CA2BCA2B111FC92BCA2BC02B1113671CCC
:10079800CE2BCF2BC62BD02B8731D32783312000EC
:1007A800490821009D0020004A0821009E002000E1
:1007B8004B0821009F002000E71CE32BE42BE82BCB
:1007C800FA30C8004808CC004C08EA2B0800200082
:1007D80053080A3E86008701403FD400413FD500B8
:1007E800003055020930031954020318FC2BFD2B65
:1007F800022C530885317E258331082C20005308AC
:10080800823104228331082C200053080A3E8600D6
:1008180087010130810741310318810A53080A3ED4
:1008280086008701403FD400413FD5000030550283
:10083800103003195402031C222C232C4C2C53086F
:10084800053E86008701403FD400413FD500423F26
:10085800D600433FD7000430D736D60CD50CD40C7D
:10086800890B302C5308033E860087015408C03F8B
:100878005508C13F5308023E860087018101810A5D
:1008880053080A3E860087010030C03FC13F4C2C08
:1008980008002000DD000530D8005808DC00602C76
:1008A80001302000DC025C08031D5B2C5C2C602CF2
:1008B800FC30AB2CAB2C602C5D0883318323843156
:1008C800003A031D682C692C542C6A2C20005D0802
:1008D800063E86008701403FD800413FD900D8092D
:1008E800D909D80A0319D90A65085807C60066083D
:1008F800593DC70086313526843120005D08053E04
:10090800860087010108DA00DB01DA35DB0DDA350C
:10091800DB0D47085B02031D932C46085A02031897
:10092800962C972CA32C5D088731A22784312000B0
:100938005D0882318F228431AB2CAB2CA92C20008E
:100948005D0887319A278431A92C0030AB2C080028
:10095800200053080A3E86008701403FD400413FEB
:10096800D50003305502E83003195402031CBD2C8E
:10097800BE2CCB2C5308860087010108D4005408EC
:10098800C60027088A0026080A008431F92C2000AE
:100998005308093E860087010108803AD4005308AD
:1009A8000E3E860087010137803AD4020318DD2CF9
:1009B800DE2CF92C5308023E860087018101810A4A
:1009C80053080A3E860087010030C03FC13F5308E4
:1009D800860087010108D4005408C60027088A0049
:1009E80026080A008431F92CF92C08002000DA00C6
:1009F8005A08D8000330D835FF3E031DFF2C583560
:100A08002D3ED9005908DB005B0A860087010108E2
:100A1800873111278431003A0319132D142D3E2DE7
:100A280020005B0A8600870101088731D9278431B5
:100A3800003A0319202D212D3E2D20005B0883311B
:100A48001823843120005B088031E22084312000A3
:100A58005B08D8005808D3005B08023E860087016F
:100A68000135203E86008701413F8A00403F0A0049
:100A780085313E2D08002000E1000930DE005E08C7
:100A8800C60061088631882685313D3E2000DF009A
:100A98005F08E200620884314D2485312000DE00C1
:100AA8005E08E0006D2D62088631522685312000EF
:100AB800620887319227853120006108DE005E08D0
:100AC800C6002B088A002A080A0085317D2D7D2D55
:100AD8007D2D20006008DE00DF01DE1BDF035F08DC
:100AE800003A0319782D7D2D5E08003A0319572D19
:100AF8007D2D08002000D200520A860087010108D7
:100B08008631E926853120004A08CE004B08CF00FF
:100B1800D001D1015208053E860087014E08C03F2A
:100B28004F08C13F5008C23F5108C33F5208053E15
:100B380086008701043081354131810D4131810DB5
:100B48004131810D7D31890B9F2D0800EB34033431
:100B580076340134AC340434DE340734DE340734FC
:100B6800DD340734C8340034003400340034003431
:100B780000340034003400340034003400340034CD
:100B88000034643401340034F4340534D03405348A
:100B9800203400340034003422008E102100153037
:100BA8009D000330890BD62D000071309D00220076
:100BB8008E1421008E308400003085000E308600AF
:100BC80001308700153080149D000032003200008B
:100BD80021009D140032000022008E1080100800B1
:100BE80022008E14210015309D000330890BFA2D48
:100BF800000071309D0022008E1021008E3084008C
:100C0800003085000E3086000130870015308014D2
:100C18009D0000320032000021009D1400320000C7
:100C280022008E14801008008731232786318B1705
:100C38000B171E2E87316E27863100308631BB2672
:100C48008631003A0319292E2A2E2E2E22008E16BE
:100C58001E2E1E2E22008E121E2E1E2E1E2E1E2E02
:100C68001D2820004708803AC80080304802031D2C
:100C78003F2E013046020318422E432E502E2000EC
:100C88004609C8004709C900C80A0319C90A48081B
:100C9800C6004908C700512E512E08002000C60082
:100CA8008B1F572E582E632E8B134608063E860040
:100CB80087016508C03F6608C13F8B176C2E460840
:100CC800063E860087016508C03F6608C13F6C2E56
:100CD80008007108803AF20080307202031D762EF7
:100CE800013070020318792E7A2E862E7009F200D0
:100CF8007109F300F20A0319F30A7208F000730885
:100D0800F100872E872E08002000C900C8018C2E0C
:100D1800491C8F2E902E952E4608C7004708C807F5
:100D2800952E0310C60D0310C90C4908031D9D2EEE
:100D38009E2E8C2E9F2E4808A12E0800F200F3014B
:100D4800A52E721CA82EA92EAE2E7008F1007108CF
:100D5800F307AE2E0310F00D0310F20C7208031DFA
:100D6800B62EB72EA52EB82E7308BA2E080020006E
:100D7800C7004708C6000330C635FF3E031DC02E16
:100D88004635023E2D3E86008701023001060319D2
:100D9800CE2ED02E0130D12E0030D22E08002200C7
:100DA8008C018E01373021008C001F308E001F30DF
:100DB80023008E0017308C0024008C018E01210046
:100DC800951725008C018E0108002000CD00093000
:100DD800CC004C08C6004D08863188268631063E70
:100DE8003D3E86008701403F2000CA00413FCB00BE
:100DF800FD2E0800FF3020009B009A019110210071
:100E08009114DF302000C6000730C7008731B027B3
:100E18008631043020009C0008002000CB000930F7
:100E2800CA004A08C6004B08863188268731083E22
:100E38003D3E86008701010C0139222F08008631CA
:100E4800D32687318731822787318731CF2787316A
:100E58008631FE26873187316127873108002000D7
:100E6800CB000930CA004A08C6004B0886318826DC
:100E78008731083E3D3E86008701011408002400A2
:100E88008E1023008E1021008E10003087313327FA
:100E980087313D3087318A2787310800200091103B
:100EA800680869040319592F5A2F602F69088A00A6
:100EB80068080A008731602F080087314327873187
:100EC8008731DC2787318731BB27873187317927FD
:100ED800873108008731C02787318731CA27873192
:100EE8008731BB278731782F0800FC3020009C050C
:100EF80021009D01D0309E009F010800783021001C
:100F080099009A0198012200960108002000C60065
:100F18004608083E86008701811008002000C600A8
:100F28004608083E86008701811408002000C60094
:100F38004608083E86008701011108002000C60007
:100F48004608083E8600870101150800FE001200C9
:100F58001E00FE0BAB2F003420004708E9004608AE
:100F6800E800080003340D340E3414340D343D30D9
:100F780087318A2787310800003085313F2587313E
:100F880008002000C60046089B0008000030843195
:100F9800FA24873108001630210097000800200045
:100FA8001C11080020001C1508000130DB2F080068
:080FB800080008000800080011
:020000040001F9
:04000E00E4F9FFFF13
:00000001FF
