:020000040000FA
:0400000081313529EC
:100008007E1480312229210092122000921E0D2890
:100018000E28342822000D17112820001708BC00CC
:100028003C08AD001608BC003C08AC002D081706BB
:10003800031D1F2820281128CF1C232824282B28FB
:1000480018102B0897002A08960018142B2822004D
:100058000D13200011100230BC003C08B8003329F1
:10006800CF1C3728382848282708BD002608BC0098
:100078003D0DBD0CBC0C3D0DBD0CBC0C3C08A807CF
:100088003D08A93D48284828111C4B284C283329ED
:1000980087314A27803120004F1853285428912847
:1000A80057285728572864301602031C5C285D28F7
:1000B80057281810290897002808BC003C089607FC
:1000C800031C672868286F280130BC003C08970784
:1000D800160896006F281814CF1C732874288428D3
:1000E8007D287D282000111C7A287B287D288428DB
:1000F80084282200151881288228762884288428B4
:10010800220011082000BC003C08FC0092122100CB
:1001180092162000B801B80A1C292908BD00280831
:10012800BC003D0DBD0CBC0C00303C04A60080306A
:100138003D04A7002008AC072108AD3D2609BC00F6
:100148002709BD00BC0A0319BD0A2C083C07A400F6
:100158002D083D3DA5002508A3002408A200A31FE3
:10016800B628B728BD28A209A309A20A0319A30A19
:10017800BD282609BC002709BD00BC0A0319BD0A11
:100188003D0DBD0CBC0C2308803ABE003D08803AEA
:100198003E02031DD1283C0822020318D428D52882
:1001A800DE282000CF146430BC003C08B9002200CF
:1001B8008D13E12822008D17E12820002508BD00B5
:1001C8002408BC003D0DBD0CBC0C3D0DBD0CBC0C89
:1001D8003D0DBD0CBC0C3C08A8023D08A93B2908F4
:1001E800AB002808AA0018102B0897002A08BC00A2
:1001F8003C089607031C0129022909290130BC0083
:100208003C08970716089600092918140230BC0004
:100218003C08B8002009BC002109BD00BC0A03192C
:10022800BD0A26083C07AA0027083D3DAB001C294B
:10023800111033293329531433293329200038085E
:10024800BC00BD013D08003A03192B291F293C08B1
:10025800013A03190728033A031948281F297E1071
:100268000900813137298F319B278131D0008F31A7
:100278009C278131D1008F319D278131D200CE0159
:10028800CF0120308400003085001C308F319E273C
:1002980081317E1020008731AF2F003400340234C2
:1002A80000340434003406340034083400340A348A
:1002B80000340C3400340E3400341034003412345A
:1002C800003414340034153400341734003419342D
:1002D80000341B3400341D3400341F3400342134FE
:1002E80000342334003425340034273400342934CE
:1002F80000342B3400342D3400342F34003431349E
:10030800003433340034353400343734003439346D
:1003180000343B3400343D3400343F34003440343E
:100328000034423400344434003446340034483411
:1003380000344A3400344C3400344E3400345034E1
:1003480000345234003454340034563400345834B1
:1003580000345A3400345C3400345E340034603481
:100368000034623400346434003466340034683451
:100378000034693400346B3400346D3400346F3425
:1003880000347134003473340034753400347734F5
:100398000034793400347B3400347D3400347F34C5
:1003A8000034813400348334003485340034873495
:1003B8000034893400348B3400348D3400348F3465
:1003C8000034913400349234003494340034963438
:1003D8000034983400349A3400349C3400349E3409
:1003E8000034A0340034A2340034A4340034A634D9
:1003F8000034A8340034AA340034AC340034AE34A9
:100408000034B0340034B2340034B4340034B63478
:100418000034B8340034BA340034BC340034BD3449
:100428000034BF340034C1340034C3340034C5341C
:100438000034C7340034C9340034CB340034CD34EC
:100448000034CF340034D1340034D3340034D534BC
:100458000034D7340034D9340034DB340034DD348C
:100468000034DF340034E1340034E3340034E5345C
:100478000034E6340034E8340034EA340034EC3430
:100488000034EE340034F0340034F2340034F43400
:100498000034F6340034F8340034FA340034FC34D0
:1004A8000034FE340034003401340234013404349E
:1004B800013406340134083401340A3401340C346C
:1004C80001340E3401340F3401341134013413343F
:1004D80001341534013417340134193401341B3410
:1004E80001341D3401341F340134213401342334E0
:1004F80001342534013427340134293401342B34B0
:1005080001342D3401342F3401343134013433347F
:1005180001343534013437340134393401343A3450
:1005280001343C3401343E34013440340134423423
:1005380001344434013446340134483401344A34F3
:1005480001344C3401344E340134503401345234C3
:1005580001345434013456340134583401345A3493
:1005680001345C3401345E34013460340134623463
:100578000134633401346534013467340134693437
:1005880001346B3401346D3401346F340134713407
:1005980001347334013475340134773401347934D7
:1005A80001347B3401347D3401347F3401348134A7
:1005B8000134833401348534013487340134893477
:1005C80001348B3401348C3401348E34013490344A
:1005D800013492340134943401349634013498341B
:1005E80001349A3401349C3401349E340134A034EB
:1005F8000134A2340134A4340134A6340134A834BB
:100608000134AA340134AC340134AE340134B0348A
:100618000134B2340134B4340134B6340134B7345B
:100628000134B9340134BB340134BD340134BF342E
:100638000134C1340134C3340134C5340134C734FE
:100648000134C9340134CB340134CD340134CF34CE
:100658000134D1340134D3340134D5340134D7349E
:100668000134D9340134DB340134DD340134DF346E
:100678000134E0340134E2340134E4340134E63442
:100688000134E8340134EA340134EC340134EE3412
:100698000134F0340134F43401342000C90049082D
:1006A800C500C6014508BF004608C0000C30C1009F
:1006B8000030C200873105278331200040088500BB
:1006C8003F088400CD3084078430853D013F8A008F
:1006D800003F0A00833120004908C500C6014508CB
:1006E800BF004608C0000C30C1000030C20087318E
:1006F8000527833120003F08023EC7000030403DF7
:10070800C800CD30470784008430483D8500013F4C
:100718008A00003F0A00833120004908C500C6014D
:100728004508BF004608C0000C30C1000030C200B8
:1007380087310527833120003F08043EC700003079
:10074800403DC800CD30470784008430483D8500CF
:10075800013F8A00003F0A00833120004908C50094
:10076800C6014508BF004608C0000C30C100003073
:10077800C20087310527833120003F08063EC700A5
:100788000030403DC800CD30470784008430483DE4
:100798008500013F8A00003F0A0083312000490894
:1007A800C500C6014508BF004608C0000C30C1009E
:1007B8000030C20087310527833120003F08083EFA
:1007C800C7000030403DC800CD3047078400843062
:1007D800483D8500013F8A00003F0A008331200020
:1007E8004908C500C6014508BF004608C0000C30CE
:1007F800C1000030C20087310527833120003F083F
:100808000A3EC7000030403DC800CD30470784008D
:100818008430483D8500013F8A00003F0A0084314A
:100828000800FA007A08F600F7017608F000770861
:10083800F1000C30F2000030F30087316C2784316E
:100848007108850070088400CD3084078430853DA8
:10085800013F8A00003F0A0084317A08F600F70158
:100868007608F0007708F1000C30F2000030F30051
:1008780087316C2784317008023EF8000030713DE2
:10088800F900CD30780784008430793D8500013F38
:100898008A00003F0A0084317A08F600F7017608DA
:1008A800F0007708F1000C30F2000030F3008731D7
:1008B8006C2784317008043EF8000030713DF9005F
:1008C800CD30780784008430793D8500013F8A0067
:1008D800003F0A0084317A08F600F7017608F00034
:1008E8007708F1000C30F2000030F30087316C27F4
:1008F80084317008063EF8000030713DF900CD30B3
:10090800780784008430793D8500013F8A00003FE4
:100918000A0084317A08F600F7017608F0007708B3
:10092800F1000C30F2000030F30087316C2784317D
:100938007008083EF8000030713DF900CD307807A6
:1009480084008430793D8500013F8A00003F0A0019
:1009580084317A08F600F7017608F0007708F1008C
:100968000C30F2000030F30087316C2784317008B6
:100978000A3EF8000030713DF900CD307807840058
:100988008430793D8500013F8A00003F0A008431A8
:100998000800AB340F34B9340F34C7340F34D534AE
:1009A8000F34F9340734EB340734B9340F34C7340F
:1009B8000F34F9340734EB340734B2340F34DC34F1
:1009C8000F34B9340F34C7340F34D5340F34F934F5
:1009D8000734B2340F34A4340F34AB340F34B93481
:1009E8000F34D5340F34F9340734CE340F34A434EB
:1009F8000F34AB340F34D5340F34F9340734EB34B7
:100A08000734CE340F34C0340F34AB340F34C7340A
:100A18000F34D5340F34EB340734F2340734C03490
:100A28000F34AB340F34B9340F34C7340F34EB34CC
:100A38000734F2340734DC340F340B138B13F030E3
:100A48002100990023000C148C148C158D158C161C
:100A5800FF3021008C0008308D008E0125009301A5
:100A6800200095010B1185302100950028302000C9
:100A7800BF003F08B3000A30BF003F08B500BB0104
:100A8800BB0A6430BF003F08B9000530BF003F080B
:100A9800B200CE134E134E12CE12CF11CF11033027
:100AA800BF003F08B600CE11CF104E114E105310A4
:100AB8004F11313098008430220091007C302000A2
:100AC8009B0005309C00A401A501A201A301A60179
:100AD800A701AC01AD01AA01AB01BA01CE10080013
:100AE8002000C3004308BF00C001BF35C00D51300E
:100AF8003F0784008130403D8500003FC100013F31
:100B0800C200420DC20CC10C420DC20CC10C4108FE
:100B18002500910020004308BF00C001BF35C00D6B
:100B280051303F0784008130403D8500003FC100BF
:100B3800013FC2004118A12DA42D25001316A62D92
:100B48002500131220004308BF00C001BF35C00DA7
:100B580051303F0784008130403D8500003FC1008F
:100B6800013FC200420DC20CC10C4118BC2DBF2D63
:100B780025009316C12D2500931208002000C100FE
:100B8800EB2D82302200920020004F10072E81307A
:100B98002200920020004F14072E8030220092007D
:100BA80020004F10072E82302200920020004F14A0
:100BB800072E81302200920020004F10072E80302F
:100BC8002200920020004F14072E072E072E4108FE
:100BD800BF00C0014008003A0319F32D072E3F0853
:100BE800013A0319C52D033A0319CB2D013A03190C
:100BF800D12D073A0319D72D013A0319DD2D033AF0
:100C08000319E32D072E0800F200302E823022004F
:100C1800920020004F104C2E8130220092002000BC
:100C28004F144C2E80302200920020004F104C2E82
:100C380082302200920020004F144C2E8130220076
:100C4800920020004F104C2E80302200920020008D
:100C58004F144C2E4C2E4C2E7208F000F1017108E6
:100C6800003A0319382E4C2E7008013A03190A2E3F
:100C7800033A0319102E013A0319162E073A0319DD
:100C88001C2E013A0319222E033A0319282E4C2E42
:100C980008002000CE18512E522E542E8A2E8A2E4D
:100CA8004E1D572E582E5A2E8A2E8A2ECE1A5D2E5B
:100CB8005E2E602E8A2E8A2ECE120130B502031DBA
:100CC800662E672E8A2E0130B602031D6C2E6D2EFD
:100CD800802E4E15C830CB004B08B4002908970069
:100CE800280896000230CB004B08B80018142100E1
:100CF80011140B178B178A2E0A302000CB004B08D3
:100D0800B5008731282786318A2E8A2E08002000D0
:100D18005208CB00CC014B08BF004C08C0008631FC
:100D2800BD2686312000CD004D08BA003A0885312D
:100D3800742586310C302500930096012000510857
:100D4800A9005008A8002908CC002808CB004C0DA1
:100D5800CC0CCB0C00304B04A60080304C04A70010
:100D6800B701B70A87312827863120004E14CE14E0
:100D780008002000C501C52E0130C1004108C50783
:100D8800C52E4508C100C201C135C20D5130410709
:100D980084008130423D8500003FC300013FC4000C
:100DA80040084402031DDA2E3F084302031CDD2ECF
:100DB800DE2EC02EDF2E4508E12E080020004E1939
:100DC800E62EE72EE92E042F042F4E18EC2EED2EDA
:100DD800EF2E042F042FCE1BF22EF32EF52E042F08
:100DE800042FCE130130B402031DFB2EFC2E042F5A
:100DF8004E10CF18002F012F042F5314042F042F47
:100E080008002000C301C401092F3F1C0C2F0D2F1F
:100E1800112F4108C3074208C43D0130C135C20D36
:100E2800890B122F0130C036BF0C890B172F3F08D2
:100E38004004031D202F212F092F222F4408C00012
:100E48004308BF00272F080020003708031D2D2F57
:100E58002E2F312F492F492F402F06303706031DDB
:100E6800362F372F3A2FB701B70A402F0130CA0063
:100E78004A08B707402F402F37088331512387315D
:100E8800200037088531C22587310800200037083F
:100E9800031D4F2F502F532F6B2F6B2F622F0630B0
:100EA8003706031D582F592F5C2FB701B70A622F39
:100EB8000130FB007B08B707622F622F37088431A7
:100EC8001524873120003708863108268731080025
:100ED800F401F5016F2F701C722F732F772F720892
:100EE800F4077308F53D0130F235F30D890B782FBF
:100EF8000130F136F00C890B7D2F70087104031D49
:100F0800862F872F6F2F882F7508F1007408F0003F
:100F18008D2F08002000CE1D922F932F952FAE2FD6
:100F2800AE2F4E1B982F992F9B2FAE2FAE2F4E13FF
:100F380033080319A02FA12FA42F0130B302AE2F1D
:100F48004F1DA72FA82FAE2FCE1586318B268731A0
:100F5800AE2FAE2F08002000531464002000531C4D
:100F6800B62FB72FBA2F8531212587318731CD2765
:100F7800873187318E27873186314D2687318631F3
:100F8800E22687318F31E3278731B12FB12F8131A5
:100F980035290B1DD02FD12FEA2F0B11053020003A
:100FA800BF003F08950732080319DB2FDC2FE02F1D
:100FB8000130B202EA2FEA2F0530BF003F08B20025
:100FC8004E17CE16CE174E16CF15EA2F08007E1CE8
:100FD800EF2F8F31982F2500161108007E1CF62F51
:100FE8008F31952F22000E1408007E1CFD2F8F31A3
:080FF800922F22000E100800E8
:101EEE0025001615080022008E12080022008E16FC
:101EFE000800250016100800250016140800220000
:101F0E008E10080022008E1408002500961008007E
:101F1E0025009614080022000E10080022000E1450
:101F2E000800250016110800E634BE344134640062
:101F3E0080010131890B9F2F00347E1CA82F8F3119
:101F4E00772F2500161508007E1CAF2F8F317A2FA4
:101F5E0022008E1208007E1CB62F8F317D2F22009C
:101F6E008E1608007E1CBD2F8F31802F2500161077
:101F7E0008007E1CC42F8F31832F250016140800F5
:101F8E007E1CCB2F8F31862F22008E1008007E1CD8
:101F9E00D22F8F31892F22008E1408007E1CD92F4C
:101FAE008F318C2F2500961008007E1CE02F8F316C
:101FBE008F2F2500961408002000CE18E72FE82F4B
:101FCE00EA2FFF2FFF2FCF18ED2FEE2FF02FFF2F21
:101FDE00FF2F4E1AF32FF42FF62FFF2FFF2F4E1237
:101FEE000130B902031DFC2FFD2FFF2F5314FF2FBD
:021FFE000800D9
:020000040001F9
:04000E009CCFFCDCAB
:00000001FF
