:020000040000FA
:020000001D28B9
:100008007E1480310B1F09280A281B282100911C07
:100018000E280F281B282000911C132814281B28A1
:100028008231FF2280311B281B281B281B287E10A9
:1000380009001E2883314E238031FD00463084009C
:1000480082308500203086000030870019308331E7
:1000580033238031F801F901FA01FB01FC01393041
:1000680084000030850018308331392380317E10B8
:1000780020002C2B21001C08F7001B08F6007C1C14
:10008800462847284928EE28EE287A0803194D28DB
:100098004E28D2286028602820002D088A002C08C5
:1000A8000A008031712820002B088A002A080A00DB
:1000B80080317128712871287A080139F400F50116
:1000C8007508003A0319692871287408003A031959
:1000D8005028013A0319572871280930F400740888
:1000E800F0007B08823178228031053E303E860060
:1000F800870101087A06031982288328CF287A1CE9
:1001080086288728AF287609F4007709F500F40ACD
:100118000319F50A7408003EF6000430753DF7002F
:100128007609F4007709F500F40A0319F50A2000A6
:100138003B087407F0003C08753DF100823111223C
:10014800803170082000BD077108BE3D7708BC00EB
:100158007608BB00CA287609F4007709F500F40A86
:100168000319F50A200039087407F0003A08753DAC
:10017800F10082311122803170082000BD0771081A
:10018800BE3D7708BA007608B900CA287608F8078D
:100198007708F93DCF280130FA02EE287608F807EB
:1001A8007708F93D7609F4007709F500F40A031990
:1001B800F50A200039087407F0003A08753DF10087
:1001C80082311122803170082000BD077108BE3DC0
:1001D8007C14EE2808002000D3005308D100033017
:1001E800D135FF3E031DF4285135413ED200520857
:1001F800D4005408023E8600870181015408053E58
:10020800860087010030C03F0030C13FC23FC33F76
:1002180054080A3E860087010030C03FC13F540899
:100228000C3E860087010030C03FC13F540A86005B
:100238008701010883314F23803108002000D9004D
:100248005208D7005108D6005908D5005508DA00D9
:10025800452956088400570885000008D500550828
:10026800D8000130D6070030D73D5808D5005A08C5
:1002780086008701550881000130D5005508DA0746
:1002880045290130D3020030D43B530A031D5029BD
:10029800540A031D502951292D29522908002000EC
:1002A800D9005F2924008E1023008E1021008E10A3
:1002B8006D2980296D2920005908D700D8015808D0
:1002C800003A0319682980295708003A0319562962
:1002D8008029200059088231A72281310930200065
:1002E800D7005708D100590882312C228131303E7D
:1002F80083312423813180290800D0302000D100A7
:100308008230D2001030D3000030D4004130813127
:10031800222181312000DC015C08031994299529E8
:100328009729A629A6295C088031EF208131013060
:100338002000DB005B08DC075C080319A429A52959
:100348009729A629080022008E10210015309D004B
:100358000330890BAD29000071309D0022008E14F6
:1003680021008E308400003085000E308600013078
:100378008700153080149D000032003200002100F3
:100388009D140032000022008E1080100800220008
:100398008E14210015309D000330890BD1290000EF
:1003A80071309D0022008E1021008E3084000030B4
:1003B80085000E30860001308700153080149D00BE
:1003C80000320032000021009D140032000022009B
:1003D8008E148010080030302000D2005208D3005C
:1003E8003030D200530852020318FB29FC29FE2999
:1003F800102A102A53088331242381310930200020
:10040800D2005208D3073030D200530852020318E2
:100418000E2A0F2AFE29102A08007108803AF200D5
:1004280080307202031D1A2A0130700203181D2A37
:100438001E2A2A2A7009F2007109F300F20A031928
:10044800F30A7208F0007308F1002B2A2B2A08001F
:100458002000D400D301302A541C332A342A392AE4
:100468005108D2005208D307392A0310D10D0310BE
:10047800D40C5408031D412A422A302A432A53081F
:10048800452A0800003400340034003400340034B5
:100498000034003400340034A7340134CB34013440
:1004A800003400340034CB340134A7340134203410
:1004B8000034003400342000DB015B080319652A8E
:1004C800662A682A772A772A5B0881315321823184
:1004D80001302000DA005A08DB075B080319752A87
:1004E800762A682A772A0800F200F3017B2A721C10
:1004F8007E2A7F2A842A7008F1007108F307842A6B
:100508000310F00D0310F20C7208031D8C2A8D2ABB
:100518007B2A8E2A7308902A080022008C018E01FB
:10052800373021008C001F308E003F3023008E00B2
:1005380017308C0024008C018E01210095172500AE
:100548008C018E0108002000D6005608031DAD2A34
:10055800AE2ABC2A0930D5005508D1005608823188
:100568002C228231083E303E860087010114BC2AC5
:100578000800FF3020009B009A019110210091147F
:1005880050302000D1000330D20083313F23823124
:10059800043020009C00080000340034003400348B
:1005A80000340034003400340034003400340034A3
:1005B8000034003464340134823191228231823132
:1005C800F022823183314A2382318231BD22823145
:1005D80083310E23823108007030210099009A017E
:1005E800980122009601F82A21001A1FFC2AFD2AE8
:1005F800F82AFE2A0800200091103F084004031939
:10060800062B072B0D2B40088A003F080A00833170
:100618000D2B080082315F228331813181218331A2
:100628008131EF21833183311B2383310800FC3072
:1006380020009C0521009D01A0309E009F0108001C
:100648002000D1005108083E86008701811008006B
:100658008231E02283318B170B17312B1D28FE00C6
:1006680012001E00FE0B342B00346400800101319F
:10067800890B3A2B003420005208C0005108BF00F3
:10068800080003340D340E3414340D3416302100B0
:0A06980097000800C83408000800AD
:020000040001F9
:04000E00E4FFFFFF0D
:00000001FF
